{
  "contractName": "MultiSigWallet",
  "abi": [
    {
      "inputs": [],
      "payable": false,
      "stateMutability": "nonpayable",
      "type": "constructor"
    },
    {
      "constant": true,
      "inputs": [],
      "name": "creator",
      "outputs": [
        {
          "name": "",
          "type": "address"
        }
      ],
      "payable": false,
      "stateMutability": "view",
      "type": "function"
    },
    {
      "constant": false,
      "inputs": [
        {
          "name": "newOwner",
          "type": "address"
        }
      ],
      "name": "addOwners",
      "outputs": [],
      "payable": false,
      "stateMutability": "nonpayable",
      "type": "function"
    },
    {
      "constant": true,
      "inputs": [],
      "name": "noOfOwner",
      "outputs": [
        {
          "name": "",
          "type": "uint256"
        }
      ],
      "payable": false,
      "stateMutability": "view",
      "type": "function"
    },
    {
      "constant": false,
      "inputs": [
        {
          "name": "removeOwner",
          "type": "address"
        }
      ],
      "name": "removeOwner",
      "outputs": [],
      "payable": false,
      "stateMutability": "nonpayable",
      "type": "function"
    },
    {
      "constant": false,
      "inputs": [],
      "name": "deposit",
      "outputs": [],
      "payable": true,
      "stateMutability": "payable",
      "type": "function"
    },
    {
      "constant": false,
      "inputs": [
        {
          "name": "to",
          "type": "address"
        },
        {
          "name": "value",
          "type": "uint256"
        }
      ],
      "name": "transferAmount",
      "outputs": [],
      "payable": false,
      "stateMutability": "nonpayable",
      "type": "function"
    },
    {
      "constant": false,
      "inputs": [
        {
          "name": "id",
          "type": "uint256"
        }
      ],
      "name": "signTransaction",
      "outputs": [],
      "payable": true,
      "stateMutability": "payable",
      "type": "function"
    },
    {
      "constant": true,
      "inputs": [],
      "name": "walletBalance",
      "outputs": [
        {
          "name": "",
          "type": "uint256"
        }
      ],
      "payable": false,
      "stateMutability": "view",
      "type": "function"
    }
  ],
  "bytecode": "0x60806040526001600255600060045534801561001a57600080fd5b50336000806101000a81548173ffffffffffffffffffffffffffffffffffffffff021916908373ffffffffffffffffffffffffffffffffffffffff16021790555060018060003373ffffffffffffffffffffffffffffffffffffffff1673ffffffffffffffffffffffffffffffffffffffff168152602001908152602001600020819055506108f3806100ae6000396000f3fe60806040526004361061007b5760003560e01c8063cb0aa3f11161004e578063cb0aa3f1146101a7578063cd0a314b146101d2578063d0e30db0146101fd578063d7081e03146102075761007b565b806302d05d3f14610080578063173825d9146100d75780635d9ec210146101285780635f3b1f3b14610156575b600080fd5b34801561008c57600080fd5b50610095610262565b604051808273ffffffffffffffffffffffffffffffffffffffff1673ffffffffffffffffffffffffffffffffffffffff16815260200191505060405180910390f35b3480156100e357600080fd5b50610126600480360360208110156100fa57600080fd5b81019080803573ffffffffffffffffffffffffffffffffffffffff16906020019092919050505061028b565b005b6101546004803603602081101561013e57600080fd5b810190808035906020019092919050505061028e565b005b34801561016257600080fd5b506101a56004803603602081101561017957600080fd5b81019080803573ffffffffffffffffffffffffffffffffffffffff169060200190929190505050610544565b005b3480156101b357600080fd5b506101bc6105e8565b6040518082815260200191505060405180910390f35b3480156101de57600080fd5b506101e76105f2565b6040518082815260200191505060405180910390f35b610205610611565b005b34801561021357600080fd5b506102606004803603604081101561022a57600080fd5b81019080803573ffffffffffffffffffffffffffffffffffffffff1690602001909291908035906020019092919050505061065e565b005b60008060009054906101000a900473ffffffffffffffffffffffffffffffffffffffff16905090565b50565b60018060003373ffffffffffffffffffffffffffffffffffffffff1673ffffffffffffffffffffffffffffffffffffffff16815260200190815260200160002054146102d957600080fd5b6000600382815481106102e857fe5b90600052602060002090600602019050600115158160050160009054906101000a900460ff1615151461031a57600080fd5b80600201543073ffffffffffffffffffffffffffffffffffffffff1631101561034257600080fd5b3373ffffffffffffffffffffffffffffffffffffffff168160000160009054906101000a900473ffffffffffffffffffffffffffffffffffffffff1673ffffffffffffffffffffffffffffffffffffffff16141561039f57600080fd5b600073ffffffffffffffffffffffffffffffffffffffff168160000160009054906101000a900473ffffffffffffffffffffffffffffffffffffffff1673ffffffffffffffffffffffffffffffffffffffff1614156103fd57600080fd5b60018160040160003373ffffffffffffffffffffffffffffffffffffffff1673ffffffffffffffffffffffffffffffffffffffff16815260200190815260200160002054141561044c57600080fd5b60018160040160003373ffffffffffffffffffffffffffffffffffffffff1673ffffffffffffffffffffffffffffffffffffffff1681526020019081526020016000208190555080600301600081548092919060010191905055506003816003015410610540578060010160009054906101000a900473ffffffffffffffffffffffffffffffffffffffff1673ffffffffffffffffffffffffffffffffffffffff166108fc82600201549081150290604051600060405180830381858888f19350505050158015610521573d6000803e3d6000fd5b5060008160050160006101000a81548160ff0219169083151502179055505b5050565b60018060003373ffffffffffffffffffffffffffffffffffffffff1673ffffffffffffffffffffffffffffffffffffffff168152602001908152602001600020541461058f57600080fd5b60018060008373ffffffffffffffffffffffffffffffffffffffff1673ffffffffffffffffffffffffffffffffffffffff1681526020019081526020016000208190555060026000815480929190600101919050555050565b6000600254905090565b60003073ffffffffffffffffffffffffffffffffffffffff1631905090565b60018060003373ffffffffffffffffffffffffffffffffffffffff1673ffffffffffffffffffffffffffffffffffffffff168152602001908152602001600020541461065c57600080fd5b565b60018060003373ffffffffffffffffffffffffffffffffffffffff1673ffffffffffffffffffffffffffffffffffffffff16815260200190815260200160002054146106a957600080fd5b803073ffffffffffffffffffffffffffffffffffffffff163110156106cd57600080fd5b6106d561086a565b33816000019073ffffffffffffffffffffffffffffffffffffffff16908173ffffffffffffffffffffffffffffffffffffffff168152505082816020019073ffffffffffffffffffffffffffffffffffffffff16908173ffffffffffffffffffffffffffffffffffffffff16815250508181604001818152505060018160800190151590811515815250506003819080600181540180825580915050906001820390600052602060002090600602016000909192909190915060008201518160000160006101000a81548173ffffffffffffffffffffffffffffffffffffffff021916908373ffffffffffffffffffffffffffffffffffffffff16021790555060208201518160010160006101000a81548173ffffffffffffffffffffffffffffffffffffffff021916908373ffffffffffffffffffffffffffffffffffffffff160217905550604082015181600201556060820151816003015560808201518160050160006101000a81548160ff021916908315150217905550505050600460008154809291906001019190505550505050565b6040518060a00160405280600073ffffffffffffffffffffffffffffffffffffffff168152602001600073ffffffffffffffffffffffffffffffffffffffff1681526020016000815260200160008152602001600015158152509056fea165627a7a72305820ded7309863b6aa47992d91f0fef3f8cb5557d8ca1b3d2d366cc1e0e6aaede83c0029",
  "source": "pragma solidity ^0.5.0;\n\ncontract MultiSigWallet{\n    \n    // This is the address who will deploy the contract \n    // Creater(owner) will add other addresses as valid owners\n    // Owner will be in the list of onlyOwners, defined in constructor\n    address private owner;\n\n    // Any owner who is legal to participate will decided by this mapping\n    // if(address => 1) means valid owner\n    // if(address => 0) means not valid owner anymore\n    mapping(address => uint) owners;\n    uint noOfOwners = 1;\n    \n    struct Transaction { \n            address from;   // who is the sender\n            address payable to;   // who is the receiver\n            uint value;  // what is the value\n            uint signatureCount; // How many people will sign this? \n            mapping(address => uint) signed; // Who has signed it and they are allowed to do it or not\n            bool isValid;  // Is it pending or completed.\n    }\n    \n    // Array of struct to keep all transaction\n    Transaction[] pendingTransaction;\n    uint transactionIdx = 0;  // How many transaction have been done? \n    \n    // Condition to give permission to onlyOwners\n    modifier onlyOwners {\n      require(owners[msg.sender] == 1);\n      _;\n    }\n    \n    // Condition to give permission to add Owners \n    modifier Owner {\n      require(owners[msg.sender] == 1);\n      _;\n    }\n    \n    constructor() public{\n        owner = msg.sender;\n        owners[msg.sender] = 1;   // By default creator is valid Owner\n    }\n    \n    function creator() view public returns(address){\n        return owner;\n    }\n    \n    // To add Owners\n    function addOwners(address newOwner) Owner public{\n        owners[newOwner] = 1;\n        noOfOwners++; \n    }\n    \n    function noOfOwner() view public returns(uint){\n        return noOfOwners;\n    }\n    \n    function removeOwner(address removeOwner) public{\n        \n    }\n    \n    // To deposit the fund to contract. \n    function deposit() payable public onlyOwners{\n        \n    }\n    \n\n    function transferAmount(address payable to, uint value) onlyOwners public{\n        require(address(this).balance >= value);\n        Transaction memory transaction;\n        transaction.from = msg.sender;\n        transaction.to = to;\n        transaction.value = value;\n        \n        transaction.isValid = true;   // Newly created transaction is true, means pending\n        \n        pendingTransaction.push(transaction);\n        transactionIdx++;\n    }\n    \n    //  To sign the transaction where different address will call \n    // the same function with same parameter value\n    function signTransaction(uint id) onlyOwners payable public{\n        Transaction storage transaction = pendingTransaction[id];\n        require(transaction.isValid == true);\n        require(address(this).balance >= transaction.value);\n        require(transaction.from != msg.sender);\n        require(transaction.from != address(0));\n        require(transaction.signed[msg.sender] != 1);  // To check the condition where same valid owner cant sign it again. \n        \n        transaction.signed[msg.sender] = 1;\n        transaction.signatureCount++;\n        \n        if(transaction.signatureCount >= 3){\n            transaction.to.transfer(transaction.value);\n            transaction.isValid = false;  // false means transaction completed \n            }\n    }\n    \n    \n    function walletBalance() view public returns(uint) {\n        return address(this).balance;\n    }\n    \n}",
  "sourcePath": "/home/tushar/Downloads/projects/Ethereum Practice/16 MultiSigWallet/MultiSigWallet/contracts/MultiSigWallet.sol",
  "compiler": {
    "name": "solc",
    "version": "0.5.8+commit.23d335f2.Emscripten.clang"
  },
  "schemaVersion": "3.0.16",
  "updatedAt": "2020-08-23T21:04:57.748Z",
  "devdoc": {
    "methods": {}
  },
  "userdoc": {
    "methods": {}
  }
}