{
  "contractName": "MultiSigWallet",
  "abi": [
    {
      "inputs": [],
      "payable": false,
      "stateMutability": "nonpayable",
      "type": "constructor"
    },
    {
      "constant": true,
      "inputs": [],
      "name": "creator",
      "outputs": [
        {
          "name": "",
          "type": "address"
        }
      ],
      "payable": false,
      "stateMutability": "view",
      "type": "function"
    },
    {
      "constant": true,
      "inputs": [
        {
          "name": "ad",
          "type": "address"
        }
      ],
      "name": "getvalue",
      "outputs": [
        {
          "name": "",
          "type": "uint256"
        }
      ],
      "payable": false,
      "stateMutability": "view",
      "type": "function"
    },
    {
      "constant": false,
      "inputs": [
        {
          "name": "newOwner",
          "type": "address"
        }
      ],
      "name": "addOwners",
      "outputs": [],
      "payable": false,
      "stateMutability": "nonpayable",
      "type": "function"
    },
    {
      "constant": true,
      "inputs": [],
      "name": "noOfOwner",
      "outputs": [
        {
          "name": "",
          "type": "uint256"
        }
      ],
      "payable": false,
      "stateMutability": "view",
      "type": "function"
    },
    {
      "constant": false,
      "inputs": [
        {
          "name": "removeOwner",
          "type": "address"
        }
      ],
      "name": "removeOwner",
      "outputs": [],
      "payable": false,
      "stateMutability": "nonpayable",
      "type": "function"
    },
    {
      "constant": false,
      "inputs": [],
      "name": "deposit",
      "outputs": [],
      "payable": true,
      "stateMutability": "payable",
      "type": "function"
    },
    {
      "constant": false,
      "inputs": [
        {
          "name": "to",
          "type": "address"
        },
        {
          "name": "value",
          "type": "uint256"
        }
      ],
      "name": "transferAmount",
      "outputs": [],
      "payable": false,
      "stateMutability": "nonpayable",
      "type": "function"
    },
    {
      "constant": false,
      "inputs": [
        {
          "name": "id",
          "type": "uint256"
        }
      ],
      "name": "signTransaction",
      "outputs": [],
      "payable": true,
      "stateMutability": "payable",
      "type": "function"
    },
    {
      "constant": false,
      "inputs": [
        {
          "name": "id",
          "type": "uint256"
        }
      ],
      "name": "removeTransaction",
      "outputs": [],
      "payable": false,
      "stateMutability": "nonpayable",
      "type": "function"
    },
    {
      "constant": false,
      "inputs": [],
      "name": "getPendingTransaction",
      "outputs": [
        {
          "name": "",
          "type": "uint256[]"
        }
      ],
      "payable": false,
      "stateMutability": "nonpayable",
      "type": "function"
    },
    {
      "constant": false,
      "inputs": [
        {
          "name": "id",
          "type": "uint256"
        }
      ],
      "name": "getTransaction",
      "outputs": [
        {
          "name": "",
          "type": "address"
        },
        {
          "name": "",
          "type": "address"
        },
        {
          "name": "",
          "type": "uint256"
        },
        {
          "name": "",
          "type": "uint256"
        },
        {
          "name": "",
          "type": "bool"
        }
      ],
      "payable": false,
      "stateMutability": "nonpayable",
      "type": "function"
    },
    {
      "constant": true,
      "inputs": [],
      "name": "walletBalance",
      "outputs": [
        {
          "name": "",
          "type": "uint256"
        }
      ],
      "payable": false,
      "stateMutability": "view",
      "type": "function"
    }
  ],
  "bytecode": "0x60806040526001600255600060045534801561001a57600080fd5b50336000806101000a81548173ffffffffffffffffffffffffffffffffffffffff021916908373ffffffffffffffffffffffffffffffffffffffff16021790555060018060003373ffffffffffffffffffffffffffffffffffffffff1673ffffffffffffffffffffffffffffffffffffffff16815260200190815260200160002081905550610e7b806100ae6000396000f3fe6080604052600436106100a75760003560e01c80635f3b1f3b116100645780635f3b1f3b146102f05780639c91d37514610341578063cb0aa3f1146103a6578063cd0a314b146103d1578063d0e30db0146103fc578063d7081e0314610406576100a7565b806302d05d3f146100ac578063173825d91461010357806332a85b3e1461015457806333ea3dc8146101c057806346c3bd1f146102875780635d9ec210146102c2575b600080fd5b3480156100b857600080fd5b506100c1610461565b604051808273ffffffffffffffffffffffffffffffffffffffff1673ffffffffffffffffffffffffffffffffffffffff16815260200191505060405180910390f35b34801561010f57600080fd5b506101526004803603602081101561012657600080fd5b81019080803573ffffffffffffffffffffffffffffffffffffffff16906020019092919050505061048a565b005b34801561016057600080fd5b5061016961048d565b6040518080602001828103825283818151815260200191508051906020019060200280838360005b838110156101ac578082015181840152602081019050610191565b505050509050019250505060405180910390f35b3480156101cc57600080fd5b506101f9600480360360208110156101e357600080fd5b81019080803590602001909291905050506104e5565b604051808673ffffffffffffffffffffffffffffffffffffffff1673ffffffffffffffffffffffffffffffffffffffff1681526020018573ffffffffffffffffffffffffffffffffffffffff1673ffffffffffffffffffffffffffffffffffffffff168152602001848152602001838152602001821515151581526020019550505050505060405180910390f35b34801561029357600080fd5b506102c0600480360360208110156102aa57600080fd5b8101908080359060200190929190505050610636565b005b6102ee600480360360208110156102d857600080fd5b81019080803590602001909291905050506106f9565b005b3480156102fc57600080fd5b5061033f6004803603602081101561031357600080fd5b81019080803573ffffffffffffffffffffffffffffffffffffffff1690602001909291905050506109b8565b005b34801561034d57600080fd5b506103906004803603602081101561036457600080fd5b81019080803573ffffffffffffffffffffffffffffffffffffffff169060200190929190505050610aa8565b6040518082815260200191505060405180910390f35b3480156103b257600080fd5b506103bb610af1565b6040518082815260200191505060405180910390f35b3480156103dd57600080fd5b506103e6610afb565b6040518082815260200191505060405180910390f35b610404610b1a565b005b34801561041257600080fd5b5061045f6004803603604081101561042957600080fd5b81019080803573ffffffffffffffffffffffffffffffffffffffff16906020019092919080359060200190929190505050610b67565b005b60008060009054906101000a900473ffffffffffffffffffffffffffffffffffffffff16905090565b50565b606060058054806020026020016040519081016040528092919081815260200182805480156104db57602002820191906000526020600020905b8154815260200190600101908083116104c7575b5050505050905090565b600080600080600060018060003373ffffffffffffffffffffffffffffffffffffffff1673ffffffffffffffffffffffffffffffffffffffff168152602001908152602001600020541461053857600080fd5b6003868154811061054557fe5b906000526020600020906006020160000160009054906101000a900473ffffffffffffffffffffffffffffffffffffffff166003878154811061058457fe5b906000526020600020906006020160010160009054906101000a900473ffffffffffffffffffffffffffffffffffffffff16600388815481106105c357fe5b906000526020600020906006020160020154600389815481106105e257fe5b90600052602060002090600602016003015460038a8154811061060157fe5b906000526020600020906006020160050160009054906101000a900460ff168393509450945094509450945091939590929450565b600080905060008090505b6005805490508110156106bf57600182141561068e576005818154811061066457fe5b90600052602060002001546005600183038154811061067f57fe5b90600052602060002001819055505b826005828154811061069c57fe5b906000526020600020015414156106b257600191505b8080600101915050610641565b600560018203815481106106cf57fe5b90600052602060002001600090556001600580549050036005816106f39190610da1565b50505050565b60018060003373ffffffffffffffffffffffffffffffffffffffff1673ffffffffffffffffffffffffffffffffffffffff168152602001908152602001600020541461074457600080fd5b60006003828154811061075357fe5b90600052602060002090600602019050600115158160050160009054906101000a900460ff1615151461078557600080fd5b80600201543073ffffffffffffffffffffffffffffffffffffffff163110156107ad57600080fd5b3373ffffffffffffffffffffffffffffffffffffffff168160000160009054906101000a900473ffffffffffffffffffffffffffffffffffffffff1673ffffffffffffffffffffffffffffffffffffffff16141561080a57600080fd5b600073ffffffffffffffffffffffffffffffffffffffff168160000160009054906101000a900473ffffffffffffffffffffffffffffffffffffffff1673ffffffffffffffffffffffffffffffffffffffff16141561086857600080fd5b60018160040160003373ffffffffffffffffffffffffffffffffffffffff1673ffffffffffffffffffffffffffffffffffffffff1681526020019081526020016000205414156108b757600080fd5b60018160040160003373ffffffffffffffffffffffffffffffffffffffff1673ffffffffffffffffffffffffffffffffffffffff16815260200190815260200160002081905550806003016000815480929190600101919050555060038160030154106109b4578060010160009054906101000a900473ffffffffffffffffffffffffffffffffffffffff1673ffffffffffffffffffffffffffffffffffffffff166108fc82600201549081150290604051600060405180830381858888f1935050505015801561098c573d6000803e3d6000fd5b5060008160050160006101000a81548160ff0219169083151502179055506109b382610636565b5b5050565b60018060003373ffffffffffffffffffffffffffffffffffffffff1673ffffffffffffffffffffffffffffffffffffffff1681526020019081526020016000205414610a0357600080fd5b60018060008373ffffffffffffffffffffffffffffffffffffffff1673ffffffffffffffffffffffffffffffffffffffff168152602001908152602001600020541415610a4f57600080fd5b60018060008373ffffffffffffffffffffffffffffffffffffffff1673ffffffffffffffffffffffffffffffffffffffff1681526020019081526020016000208190555060026000815480929190600101919050555050565b6000600160008373ffffffffffffffffffffffffffffffffffffffff1673ffffffffffffffffffffffffffffffffffffffff168152602001908152602001600020549050919050565b6000600254905090565b60003073ffffffffffffffffffffffffffffffffffffffff1631905090565b60018060003373ffffffffffffffffffffffffffffffffffffffff1673ffffffffffffffffffffffffffffffffffffffff1681526020019081526020016000205414610b6557600080fd5b565b60018060003373ffffffffffffffffffffffffffffffffffffffff1673ffffffffffffffffffffffffffffffffffffffff1681526020019081526020016000205414610bb257600080fd5b803073ffffffffffffffffffffffffffffffffffffffff16311015610bd657600080fd5b610bde610dcd565b33816000019073ffffffffffffffffffffffffffffffffffffffff16908173ffffffffffffffffffffffffffffffffffffffff168152505082816020019073ffffffffffffffffffffffffffffffffffffffff16908173ffffffffffffffffffffffffffffffffffffffff16815250508181604001818152505060018160800190151590811515815250506003819080600181540180825580915050906001820390600052602060002090600602016000909192909190915060008201518160000160006101000a81548173ffffffffffffffffffffffffffffffffffffffff021916908373ffffffffffffffffffffffffffffffffffffffff16021790555060208201518160010160006101000a81548173ffffffffffffffffffffffffffffffffffffffff021916908373ffffffffffffffffffffffffffffffffffffffff160217905550604082015181600201556060820151816003015560808201518160050160006101000a81548160ff02191690831515021790555050505060056004549080600181540180825580915050906001820390600052602060002001600090919290919091505550600460008154809291906001019190505550505050565b815481835581811115610dc857818360005260206000209182019101610dc79190610e2a565b5b505050565b6040518060a00160405280600073ffffffffffffffffffffffffffffffffffffffff168152602001600073ffffffffffffffffffffffffffffffffffffffff16815260200160008152602001600081526020016000151581525090565b610e4c91905b80821115610e48576000816000905550600101610e30565b5090565b9056fea165627a7a72305820f0aac73992bcd1e7a2fc671af98b2d5dcf9c4be8c030405965bd82fab622e7e30029",
  "source": "pragma solidity ^0.5.0;\n\ncontract MultiSigWallet{\n    \n    // This is the address who will deploy the contract \n    // Creater(owner) will add other addresses as valid owners\n    // Owner will be in the list of onlyOwners, defined in constructor\n    address private owner;\n\n    // Any owner who is legal to participate will decided by this mapping\n    // if(address => 1) means valid owner\n    // if(address => 2) means not valid owner anymore\n    mapping(address => uint) owners;\n    uint noOfOwners = 1;\n    \n    struct Transaction { \n            address from;   // who is the sender\n            address payable to;   // who is the receiver\n            uint value;  // what is the value\n            uint signatureCount; // How many people will sign this? \n            mapping(address => uint) signed; // Who has signed it and they are allowed to do it or not\n            bool isValid;  // Is it pending or completed.\n    }\n    \n    // Array of struct to keep all transaction\n    Transaction[] createdTransaction;\n    uint transactionIdx = 0;  // How many transaction have been done? \n    uint[] pendingTransaction; \n    \n    // Condition to give permission to onlyOwners\n    modifier onlyOwners {\n      require(owners[msg.sender] == 1);\n      _;\n    }\n    \n    // Condition to give permission to add Owners \n    modifier Owner {\n      require(owners[msg.sender] == 1);\n      _;\n    }\n    \n    constructor() public{\n        owner = msg.sender;\n        owners[msg.sender] = 1;   // By default creator is valid Owner\n    }\n    \n    function creator() view public returns(address){\n        return owner;\n    }\n    \n    function getvalue(address ad) view public returns(uint){\n        return owners[ad];\n    }\n    \n    // To add Owners\n    function addOwners(address newOwner) Owner public{\n        require(owners[newOwner] != 1);\n        owners[newOwner] = 1;\n        noOfOwners++; \n    }\n    \n    function noOfOwner() view public returns(uint){\n        return noOfOwners;\n    }\n    \n    function removeOwner(address removeOwner) public{\n        // to remove it make the flag 2\n    }\n    \n    // To deposit the fund to contract. \n    function deposit() payable public onlyOwners{\n        \n    }\n    \n\n    function transferAmount(address payable to, uint value) onlyOwners public{\n        require(address(this).balance >= value);\n        Transaction memory transaction;\n        transaction.from = msg.sender;\n        transaction.to = to;\n        transaction.value = value;\n        \n        transaction.isValid = true;   // Newly created transaction is true, means pending\n        \n        createdTransaction.push(transaction);\n        pendingTransaction.push(transactionIdx);\n        transactionIdx++;\n    }\n    \n    //  To sign the transaction where different address will call \n    // the same function with same parameter value\n    function signTransaction(uint id) onlyOwners payable public{\n        Transaction storage transaction = createdTransaction[id];\n        require(transaction.isValid == true);\n        require(address(this).balance >= transaction.value);\n        require(transaction.from != msg.sender);\n        require(transaction.from != address(0));\n        require(transaction.signed[msg.sender] != 1);  // To check the condition where same valid owner cant sign it again. \n        \n        transaction.signed[msg.sender] = 1;\n        transaction.signatureCount++;\n        \n        if(transaction.signatureCount >= 3){\n            transaction.to.transfer(transaction.value);\n            transaction.isValid = false;  // false means transaction completed \n            removeTransaction(id);\n            }\n    }\n    \n    function removeTransaction(uint id) public{\n        uint replace = 0;\n        uint i;\n        for( i=0; i< pendingTransaction.length; i++){\n            if(replace == 1){\n                pendingTransaction[i-1] = pendingTransaction[i];\n            }\n            if(pendingTransaction[i]==id){\n                replace = 1;\n            }\n        }\n        delete pendingTransaction[i-1];\n        pendingTransaction.length = pendingTransaction.length -1;\n    }\n    \n    function getPendingTransaction() public returns(uint[] memory){\n        return pendingTransaction; \n    }\n    \n    \n    function getTransaction(uint id) public onlyOwners returns(address, address, uint, uint, bool) {\n        //  address from;   // who is the sender\n        //     address payable to;   // who is the receiver\n        //     uint value;  // what is the value\n        //     uint signatureCount; // How many people will sign this? \n        //     mapping(address => uint) signed; // Who has signed it and they are allowed to do it or not\n        //     bool isValid;  // Is it pending or completed.\n             return(\n             createdTransaction[id].from,\n             createdTransaction[id].to, \n             createdTransaction[id].value,\n             createdTransaction[id].signatureCount,\n             createdTransaction[id].isValid);\n    }\n    \n    \n    function walletBalance() view public returns(uint) {\n        return address(this).balance;\n    }\n    \n}",
  "sourcePath": "/home/tushar/Downloads/projects/Ethereum Practice/16 MultiSigWallet/MultiSigWallet/contracts/MultiSigWallet.sol",
  "compiler": {
    "name": "solc",
    "version": "0.5.8+commit.23d335f2.Emscripten.clang"
  },
  "schemaVersion": "3.0.16",
  "updatedAt": "2020-08-24T21:15:12.320Z",
  "devdoc": {
    "methods": {}
  },
  "userdoc": {
    "methods": {}
  }
}