{
  "contractName": "MultiSigWallet",
  "abi": [
    {
      "inputs": [],
      "payable": false,
      "stateMutability": "nonpayable",
      "type": "constructor"
    },
    {
      "constant": true,
      "inputs": [],
      "name": "creator",
      "outputs": [
        {
          "name": "",
          "type": "address"
        }
      ],
      "payable": false,
      "stateMutability": "view",
      "type": "function"
    },
    {
      "constant": false,
      "inputs": [
        {
          "name": "newOwner",
          "type": "address"
        }
      ],
      "name": "addOwners",
      "outputs": [],
      "payable": false,
      "stateMutability": "nonpayable",
      "type": "function"
    },
    {
      "constant": false,
      "inputs": [
        {
          "name": "removeOwner",
          "type": "address"
        }
      ],
      "name": "removeOwner",
      "outputs": [],
      "payable": false,
      "stateMutability": "nonpayable",
      "type": "function"
    },
    {
      "constant": false,
      "inputs": [],
      "name": "deposit",
      "outputs": [],
      "payable": true,
      "stateMutability": "payable",
      "type": "function"
    },
    {
      "constant": false,
      "inputs": [
        {
          "name": "to",
          "type": "address"
        },
        {
          "name": "value",
          "type": "uint256"
        }
      ],
      "name": "transferAmount",
      "outputs": [],
      "payable": false,
      "stateMutability": "nonpayable",
      "type": "function"
    },
    {
      "constant": false,
      "inputs": [
        {
          "name": "id",
          "type": "uint256"
        }
      ],
      "name": "signTransaction",
      "outputs": [],
      "payable": true,
      "stateMutability": "payable",
      "type": "function"
    },
    {
      "constant": true,
      "inputs": [],
      "name": "walletBalance",
      "outputs": [
        {
          "name": "",
          "type": "uint256"
        }
      ],
      "payable": false,
      "stateMutability": "view",
      "type": "function"
    }
  ],
  "bytecode": "0x6080604052600060035534801561001557600080fd5b50336000806101000a81548173ffffffffffffffffffffffffffffffffffffffff021916908373ffffffffffffffffffffffffffffffffffffffff16021790555060018060003373ffffffffffffffffffffffffffffffffffffffff1673ffffffffffffffffffffffffffffffffffffffff168152602001908152602001600020819055506108a1806100a96000396000f3fe6080604052600436106100705760003560e01c80635f3b1f3b1161004e5780635f3b1f3b1461014b578063cd0a314b1461019c578063d0e30db0146101c7578063d7081e03146101d157610070565b806302d05d3f14610075578063173825d9146100cc5780635d9ec2101461011d575b600080fd5b34801561008157600080fd5b5061008a61022c565b604051808273ffffffffffffffffffffffffffffffffffffffff1673ffffffffffffffffffffffffffffffffffffffff16815260200191505060405180910390f35b3480156100d857600080fd5b5061011b600480360360208110156100ef57600080fd5b81019080803573ffffffffffffffffffffffffffffffffffffffff169060200190929190505050610255565b005b6101496004803603602081101561013357600080fd5b8101908080359060200190929190505050610258565b005b34801561015757600080fd5b5061019a6004803603602081101561016e57600080fd5b81019080803573ffffffffffffffffffffffffffffffffffffffff16906020019092919050505061050e565b005b3480156101a857600080fd5b506101b16105a0565b6040518082815260200191505060405180910390f35b6101cf6105bf565b005b3480156101dd57600080fd5b5061022a600480360360408110156101f457600080fd5b81019080803573ffffffffffffffffffffffffffffffffffffffff1690602001909291908035906020019092919050505061060c565b005b60008060009054906101000a900473ffffffffffffffffffffffffffffffffffffffff16905090565b50565b60018060003373ffffffffffffffffffffffffffffffffffffffff1673ffffffffffffffffffffffffffffffffffffffff16815260200190815260200160002054146102a357600080fd5b6000600282815481106102b257fe5b90600052602060002090600602019050600115158160050160009054906101000a900460ff161515146102e457600080fd5b80600201543073ffffffffffffffffffffffffffffffffffffffff1631101561030c57600080fd5b3373ffffffffffffffffffffffffffffffffffffffff168160000160009054906101000a900473ffffffffffffffffffffffffffffffffffffffff1673ffffffffffffffffffffffffffffffffffffffff16141561036957600080fd5b600073ffffffffffffffffffffffffffffffffffffffff168160000160009054906101000a900473ffffffffffffffffffffffffffffffffffffffff1673ffffffffffffffffffffffffffffffffffffffff1614156103c757600080fd5b60018160040160003373ffffffffffffffffffffffffffffffffffffffff1673ffffffffffffffffffffffffffffffffffffffff16815260200190815260200160002054141561041657600080fd5b60018160040160003373ffffffffffffffffffffffffffffffffffffffff1673ffffffffffffffffffffffffffffffffffffffff168152602001908152602001600020819055508060030160008154809291906001019190505550600381600301541061050a578060010160009054906101000a900473ffffffffffffffffffffffffffffffffffffffff1673ffffffffffffffffffffffffffffffffffffffff166108fc82600201549081150290604051600060405180830381858888f193505050501580156104eb573d6000803e3d6000fd5b5060008160050160006101000a81548160ff0219169083151502179055505b5050565b60018060003373ffffffffffffffffffffffffffffffffffffffff1673ffffffffffffffffffffffffffffffffffffffff168152602001908152602001600020541461055957600080fd5b60018060008373ffffffffffffffffffffffffffffffffffffffff1673ffffffffffffffffffffffffffffffffffffffff1681526020019081526020016000208190555050565b60003073ffffffffffffffffffffffffffffffffffffffff1631905090565b60018060003373ffffffffffffffffffffffffffffffffffffffff1673ffffffffffffffffffffffffffffffffffffffff168152602001908152602001600020541461060a57600080fd5b565b60018060003373ffffffffffffffffffffffffffffffffffffffff1673ffffffffffffffffffffffffffffffffffffffff168152602001908152602001600020541461065757600080fd5b803073ffffffffffffffffffffffffffffffffffffffff1631101561067b57600080fd5b610683610818565b33816000019073ffffffffffffffffffffffffffffffffffffffff16908173ffffffffffffffffffffffffffffffffffffffff168152505082816020019073ffffffffffffffffffffffffffffffffffffffff16908173ffffffffffffffffffffffffffffffffffffffff16815250508181604001818152505060018160800190151590811515815250506002819080600181540180825580915050906001820390600052602060002090600602016000909192909190915060008201518160000160006101000a81548173ffffffffffffffffffffffffffffffffffffffff021916908373ffffffffffffffffffffffffffffffffffffffff16021790555060208201518160010160006101000a81548173ffffffffffffffffffffffffffffffffffffffff021916908373ffffffffffffffffffffffffffffffffffffffff160217905550604082015181600201556060820151816003015560808201518160050160006101000a81548160ff021916908315150217905550505050600360008154809291906001019190505550505050565b6040518060a00160405280600073ffffffffffffffffffffffffffffffffffffffff168152602001600073ffffffffffffffffffffffffffffffffffffffff1681526020016000815260200160008152602001600015158152509056fea165627a7a723058205c66f1eb05a6eb68b21ce079f65a73182d8f170605ac8f094a86f44f600f74ef0029",
  "source": "pragma solidity ^0.5.0;\n\ncontract MultiSigWallet{\n    \n    address private owner;\n    mapping(address => uint) owners;\n    \n    \n    \n    struct Transaction { \n            address from;\n            address payable to;\n            uint value;\n            uint signatureCount; \n            mapping(address => uint) signed;\n            bool isValid;\n    }\n    \n    Transaction[] pendingTransaction;\n    uint transactionIdx = 0;\n    \n    modifier onlyOwners {\n      require(owners[msg.sender] == 1);\n      _;\n    }\n    \n    modifier Owner {\n      require(owners[msg.sender] == 1);\n      _;\n    }\n    \n    constructor() public{\n        owner = msg.sender;\n        owners[msg.sender] = 1;\n    }\n    \n    function creator() view public returns(address){\n        return owner;\n    }\n    \n    function addOwners(address newOwner) Owner public{\n        owners[newOwner] = 1;\n    }\n    \n    function removeOwner(address removeOwner) public{\n        \n    }\n    \n    function deposit() payable public onlyOwners{\n        \n    }\n    \n    function transferAmount(address payable to, uint value) onlyOwners public{\n        require(address(this).balance >= value);\n        Transaction memory transaction;\n        transaction.from = msg.sender;\n        transaction.to = to;\n        transaction.value = value;\n        \n        transaction.isValid = true;\n        \n                \n        \n        pendingTransaction.push(transaction);\n        transactionIdx++;\n        \n    }\n    \n    function signTransaction(uint id) onlyOwners payable public{\n        \n        Transaction storage transaction = pendingTransaction[id];\n        require(transaction.isValid == true);\n        require(address(this).balance >= transaction.value);\n        require(transaction.from != msg.sender);\n        require(transaction.from != address(0));\n        require(transaction.signed[msg.sender] != 1);\n        \n        transaction.signed[msg.sender] = 1;\n        transaction.signatureCount++;\n        \n        if(transaction.signatureCount >= 3){\n            transaction.to.transfer(transaction.value);\n            transaction.isValid = false;\n            \n        }\n\n    }\n    \n    \n    function walletBalance() view public returns(uint) {\n        return address(this).balance;\n    }\n    \n}",
  "sourcePath": "/home/tushar/Downloads/projects/Ethereum Practice/16 MultiSigWallet/MultiSigWallet/contracts/MultiSigWallet.sol",
  "compiler": {
    "name": "solc",
    "version": "0.5.8+commit.23d335f2.Emscripten.clang"
  },
  "schemaVersion": "3.0.16",
  "updatedAt": "2020-08-22T23:18:24.188Z",
  "devdoc": {
    "methods": {}
  },
  "userdoc": {
    "methods": {}
  }
}