{
  "contractName": "MultiSigWallet",
  "abi": [
    {
      "constant": true,
      "inputs": [
        {
          "name": "",
          "type": "uint256"
        }
      ],
      "name": "addedOwners",
      "outputs": [
        {
          "name": "",
          "type": "address"
        }
      ],
      "payable": false,
      "stateMutability": "view",
      "type": "function"
    },
    {
      "inputs": [],
      "payable": false,
      "stateMutability": "nonpayable",
      "type": "constructor"
    },
    {
      "constant": true,
      "inputs": [],
      "name": "creator",
      "outputs": [
        {
          "name": "",
          "type": "address"
        }
      ],
      "payable": false,
      "stateMutability": "view",
      "type": "function"
    },
    {
      "constant": true,
      "inputs": [
        {
          "name": "ad",
          "type": "address"
        }
      ],
      "name": "getvalue",
      "outputs": [
        {
          "name": "",
          "type": "uint256"
        }
      ],
      "payable": false,
      "stateMutability": "view",
      "type": "function"
    },
    {
      "constant": false,
      "inputs": [
        {
          "name": "newOwner",
          "type": "address"
        }
      ],
      "name": "addOwners",
      "outputs": [],
      "payable": false,
      "stateMutability": "nonpayable",
      "type": "function"
    },
    {
      "constant": true,
      "inputs": [],
      "name": "noOfOwner",
      "outputs": [
        {
          "name": "",
          "type": "uint256"
        }
      ],
      "payable": false,
      "stateMutability": "view",
      "type": "function"
    },
    {
      "constant": true,
      "inputs": [],
      "name": "getAddedOwners",
      "outputs": [
        {
          "name": "",
          "type": "address[]"
        }
      ],
      "payable": false,
      "stateMutability": "view",
      "type": "function"
    },
    {
      "constant": false,
      "inputs": [
        {
          "name": "removeOwner",
          "type": "address"
        }
      ],
      "name": "removeOwner",
      "outputs": [],
      "payable": false,
      "stateMutability": "nonpayable",
      "type": "function"
    },
    {
      "constant": false,
      "inputs": [],
      "name": "deposit",
      "outputs": [],
      "payable": true,
      "stateMutability": "payable",
      "type": "function"
    },
    {
      "constant": false,
      "inputs": [
        {
          "name": "to",
          "type": "address"
        },
        {
          "name": "value",
          "type": "uint256"
        }
      ],
      "name": "transferAmount",
      "outputs": [],
      "payable": false,
      "stateMutability": "nonpayable",
      "type": "function"
    },
    {
      "constant": false,
      "inputs": [
        {
          "name": "id",
          "type": "uint256"
        }
      ],
      "name": "signTransaction",
      "outputs": [],
      "payable": true,
      "stateMutability": "payable",
      "type": "function"
    },
    {
      "constant": false,
      "inputs": [
        {
          "name": "id",
          "type": "uint256"
        }
      ],
      "name": "removeTransaction",
      "outputs": [],
      "payable": false,
      "stateMutability": "nonpayable",
      "type": "function"
    },
    {
      "constant": false,
      "inputs": [],
      "name": "getPendingTransaction",
      "outputs": [
        {
          "name": "",
          "type": "uint256[]"
        }
      ],
      "payable": false,
      "stateMutability": "nonpayable",
      "type": "function"
    },
    {
      "constant": false,
      "inputs": [
        {
          "name": "id",
          "type": "uint256"
        }
      ],
      "name": "getTransaction",
      "outputs": [
        {
          "name": "",
          "type": "address"
        },
        {
          "name": "",
          "type": "address"
        },
        {
          "name": "",
          "type": "uint256"
        },
        {
          "name": "",
          "type": "uint256"
        },
        {
          "name": "",
          "type": "bool"
        }
      ],
      "payable": false,
      "stateMutability": "nonpayable",
      "type": "function"
    },
    {
      "constant": true,
      "inputs": [],
      "name": "walletBalance",
      "outputs": [
        {
          "name": "",
          "type": "uint256"
        }
      ],
      "payable": false,
      "stateMutability": "view",
      "type": "function"
    }
  ],
  "bytecode": "0x60806040526001600355600060055534801561001a57600080fd5b50336000806101000a81548173ffffffffffffffffffffffffffffffffffffffff021916908373ffffffffffffffffffffffffffffffffffffffff16021790555060018060003373ffffffffffffffffffffffffffffffffffffffff1673ffffffffffffffffffffffffffffffffffffffff16815260200190815260200160002081905550611370806100ae6000396000f3fe6080604052600436106100dd5760003560e01c80635f3b1f3b1161007f578063cd0a314b11610059578063cd0a314b14610473578063d0e30db01461049e578063d7081e03146104a8578063f999dcbf14610503576100dd565b80635f3b1f3b146103925780639c91d375146103e3578063cb0aa3f114610448576100dd565b806333ea3dc8116100bb57806333ea3dc8146101f657806346c3bd1f146102bd5780635d9ec210146102f85780635da6d03514610326576100dd565b806302d05d3f146100e2578063173825d91461013957806332a85b3e1461018a575b600080fd5b3480156100ee57600080fd5b506100f761057e565b604051808273ffffffffffffffffffffffffffffffffffffffff1673ffffffffffffffffffffffffffffffffffffffff16815260200191505060405180910390f35b34801561014557600080fd5b506101886004803603602081101561015c57600080fd5b81019080803573ffffffffffffffffffffffffffffffffffffffff1690602001909291905050506105a7565b005b34801561019657600080fd5b5061019f610807565b6040518080602001828103825283818151815260200191508051906020019060200280838360005b838110156101e25780820151818401526020810190506101c7565b505050509050019250505060405180910390f35b34801561020257600080fd5b5061022f6004803603602081101561021957600080fd5b810190808035906020019092919050505061085f565b604051808673ffffffffffffffffffffffffffffffffffffffff1673ffffffffffffffffffffffffffffffffffffffff1681526020018573ffffffffffffffffffffffffffffffffffffffff1673ffffffffffffffffffffffffffffffffffffffff168152602001848152602001838152602001821515151581526020019550505050505060405180910390f35b3480156102c957600080fd5b506102f6600480360360208110156102e057600080fd5b81019080803590602001909291905050506109b0565b005b6103246004803603602081101561030e57600080fd5b8101908080359060200190929190505050610a73565b005b34801561033257600080fd5b5061033b610d32565b6040518080602001828103825283818151815260200191508051906020019060200280838360005b8381101561037e578082015181840152602081019050610363565b505050509050019250505060405180910390f35b34801561039e57600080fd5b506103e1600480360360208110156103b557600080fd5b81019080803573ffffffffffffffffffffffffffffffffffffffff169060200190929190505050610e0b565b005b3480156103ef57600080fd5b506104326004803603602081101561040657600080fd5b81019080803573ffffffffffffffffffffffffffffffffffffffff169060200190929190505050610f61565b6040518082815260200191505060405180910390f35b34801561045457600080fd5b5061045d610faa565b6040518082815260200191505060405180910390f35b34801561047f57600080fd5b50610488610fb4565b6040518082815260200191505060405180910390f35b6104a6610fd3565b005b3480156104b457600080fd5b50610501600480360360408110156104cb57600080fd5b81019080803573ffffffffffffffffffffffffffffffffffffffff16906020019092919080359060200190929190505050611020565b005b34801561050f57600080fd5b5061053c6004803603602081101561052657600080fd5b810190808035906020019092919050505061125a565b604051808273ffffffffffffffffffffffffffffffffffffffff1673ffffffffffffffffffffffffffffffffffffffff16815260200191505060405180910390f35b60008060009054906101000a900473ffffffffffffffffffffffffffffffffffffffff16905090565b60018060003373ffffffffffffffffffffffffffffffffffffffff1673ffffffffffffffffffffffffffffffffffffffff16815260200190815260200160002054146105f257600080fd5b60018060008373ffffffffffffffffffffffffffffffffffffffff1673ffffffffffffffffffffffffffffffffffffffff168152602001908152602001600020541461063d57600080fd5b60008060009050600091505b60028054905082101561076d578273ffffffffffffffffffffffffffffffffffffffff166002838154811061067a57fe5b9060005260206000200160009054906101000a900473ffffffffffffffffffffffffffffffffffffffff1673ffffffffffffffffffffffffffffffffffffffff1614156106c657600190505b600181141561076057600282815481106106dc57fe5b9060005260206000200160009054906101000a900473ffffffffffffffffffffffffffffffffffffffff166002600184038154811061071757fe5b9060005260206000200160006101000a81548173ffffffffffffffffffffffffffffffffffffffff021916908373ffffffffffffffffffffffffffffffffffffffff1602179055505b8180600101925050610649565b6002600183038154811061077d57fe5b9060005260206000200160006101000a81549073ffffffffffffffffffffffffffffffffffffffff0219169055600360008154809291906001900391905055506002600160008573ffffffffffffffffffffffffffffffffffffffff1673ffffffffffffffffffffffffffffffffffffffff16815260200190815260200160002081905550505050565b6060600680548060200260200160405190810160405280929190818152602001828054801561085557602002820191906000526020600020905b815481526020019060010190808311610841575b5050505050905090565b600080600080600060018060003373ffffffffffffffffffffffffffffffffffffffff1673ffffffffffffffffffffffffffffffffffffffff16815260200190815260200160002054146108b257600080fd5b600486815481106108bf57fe5b906000526020600020906006020160000160009054906101000a900473ffffffffffffffffffffffffffffffffffffffff16600487815481106108fe57fe5b906000526020600020906006020160010160009054906101000a900473ffffffffffffffffffffffffffffffffffffffff166004888154811061093d57fe5b9060005260206000209060060201600201546004898154811061095c57fe5b90600052602060002090600602016003015460048a8154811061097b57fe5b906000526020600020906006020160050160009054906101000a900460ff168393509450945094509450945091939590929450565b600080905060008090505b600680549050811015610a39576001821415610a0857600681815481106109de57fe5b9060005260206000200154600660018303815481106109f957fe5b90600052602060002001819055505b8260068281548110610a1657fe5b90600052602060002001541415610a2c57600191505b80806001019150506109bb565b60066001820381548110610a4957fe5b9060005260206000200160009055600160068054905003600681610a6d9190611296565b50505050565b60018060003373ffffffffffffffffffffffffffffffffffffffff1673ffffffffffffffffffffffffffffffffffffffff1681526020019081526020016000205414610abe57600080fd5b600060048281548110610acd57fe5b90600052602060002090600602019050600115158160050160009054906101000a900460ff16151514610aff57600080fd5b80600201543073ffffffffffffffffffffffffffffffffffffffff16311015610b2757600080fd5b3373ffffffffffffffffffffffffffffffffffffffff168160000160009054906101000a900473ffffffffffffffffffffffffffffffffffffffff1673ffffffffffffffffffffffffffffffffffffffff161415610b8457600080fd5b600073ffffffffffffffffffffffffffffffffffffffff168160000160009054906101000a900473ffffffffffffffffffffffffffffffffffffffff1673ffffffffffffffffffffffffffffffffffffffff161415610be257600080fd5b60018160040160003373ffffffffffffffffffffffffffffffffffffffff1673ffffffffffffffffffffffffffffffffffffffff168152602001908152602001600020541415610c3157600080fd5b60018160040160003373ffffffffffffffffffffffffffffffffffffffff1673ffffffffffffffffffffffffffffffffffffffff1681526020019081526020016000208190555080600301600081548092919060010191905055506003816003015410610d2e578060010160009054906101000a900473ffffffffffffffffffffffffffffffffffffffff1673ffffffffffffffffffffffffffffffffffffffff166108fc82600201549081150290604051600060405180830381858888f19350505050158015610d06573d6000803e3d6000fd5b5060008160050160006101000a81548160ff021916908315150217905550610d2d826109b0565b5b5050565b606060018060003373ffffffffffffffffffffffffffffffffffffffff1673ffffffffffffffffffffffffffffffffffffffff1681526020019081526020016000205414610d7f57600080fd5b6002805480602002602001604051908101604052809291908181526020018280548015610e0157602002820191906000526020600020905b8160009054906101000a900473ffffffffffffffffffffffffffffffffffffffff1673ffffffffffffffffffffffffffffffffffffffff1681526020019060010190808311610db7575b5050505050905090565b60018060003373ffffffffffffffffffffffffffffffffffffffff1673ffffffffffffffffffffffffffffffffffffffff1681526020019081526020016000205414610e5657600080fd5b60018060008373ffffffffffffffffffffffffffffffffffffffff1673ffffffffffffffffffffffffffffffffffffffff168152602001908152602001600020541415610ea257600080fd5b60018060008373ffffffffffffffffffffffffffffffffffffffff1673ffffffffffffffffffffffffffffffffffffffff1681526020019081526020016000208190555060028190806001815401808255809150509060018203906000526020600020016000909192909190916101000a81548173ffffffffffffffffffffffffffffffffffffffff021916908373ffffffffffffffffffffffffffffffffffffffff1602179055505060036000815480929190600101919050555050565b6000600160008373ffffffffffffffffffffffffffffffffffffffff1673ffffffffffffffffffffffffffffffffffffffff168152602001908152602001600020549050919050565b6000600354905090565b60003073ffffffffffffffffffffffffffffffffffffffff1631905090565b60018060003373ffffffffffffffffffffffffffffffffffffffff1673ffffffffffffffffffffffffffffffffffffffff168152602001908152602001600020541461101e57600080fd5b565b60018060003373ffffffffffffffffffffffffffffffffffffffff1673ffffffffffffffffffffffffffffffffffffffff168152602001908152602001600020541461106b57600080fd5b803073ffffffffffffffffffffffffffffffffffffffff1631101561108f57600080fd5b6110976112c2565b33816000019073ffffffffffffffffffffffffffffffffffffffff16908173ffffffffffffffffffffffffffffffffffffffff168152505082816020019073ffffffffffffffffffffffffffffffffffffffff16908173ffffffffffffffffffffffffffffffffffffffff16815250508181604001818152505060018160800190151590811515815250506004819080600181540180825580915050906001820390600052602060002090600602016000909192909190915060008201518160000160006101000a81548173ffffffffffffffffffffffffffffffffffffffff021916908373ffffffffffffffffffffffffffffffffffffffff16021790555060208201518160010160006101000a81548173ffffffffffffffffffffffffffffffffffffffff021916908373ffffffffffffffffffffffffffffffffffffffff160217905550604082015181600201556060820151816003015560808201518160050160006101000a81548160ff02191690831515021790555050505060066005549080600181540180825580915050906001820390600052602060002001600090919290919091505550600560008154809291906001019190505550505050565b6002818154811061126757fe5b906000526020600020016000915054906101000a900473ffffffffffffffffffffffffffffffffffffffff1681565b8154818355818111156112bd578183600052602060002091820191016112bc919061131f565b5b505050565b6040518060a00160405280600073ffffffffffffffffffffffffffffffffffffffff168152602001600073ffffffffffffffffffffffffffffffffffffffff16815260200160008152602001600081526020016000151581525090565b61134191905b8082111561133d576000816000905550600101611325565b5090565b9056fea165627a7a72305820446b5d91f23248140cb7838afc76fff10f5a9b16ebb2c4969831a291c4387c900029",
  "source": "pragma solidity ^0.5.0;\n\ncontract MultiSigWallet{\n\n    // This is the address who will deploy the contract\n    // Creater(owner) will add other addresses as valid owners\n    // Owner will be in the list of onlyOwners, defined in constructor\n    address private owner;\n\n    // Any owner who is legal to participate will decided by this mapping\n    // if(address => 1) means valid owner\n    // if(address => 2) means not valid owner anymore\n    mapping(address => uint) owners;\n    address[] public addedOwners;\n    uint noOfOwners = 1;\n\n    struct Transaction {\n            address from;   // who is the sender\n            address payable to;   // who is the receiver\n            uint value;  // what is the value\n            uint signatureCount; // How many people will sign this?\n            mapping(address => uint) signed; // Who has signed it and they are allowed to do it or not\n            bool isValid;  // Is it pending or completed.\n    }\n\n    // Array of struct to keep all transaction\n    Transaction[] createdTransaction;\n    uint transactionIdx = 0;  // How many transaction have been done?\n    uint[] pendingTransaction;\n\n    // Condition to give permission to onlyOwners\n    modifier onlyOwners {\n      require(owners[msg.sender] == 1);\n      _;\n    }\n\n    // Condition to give permission to add Owners\n    modifier Owner {\n      require(owners[msg.sender] == 1);\n      _;\n    }\n\n    constructor() public{\n        owner = msg.sender;\n        owners[msg.sender] = 1;   // By default creator is valid Owner\n    }\n\n    function creator() view public returns(address){\n        return owner;\n    }\n\n    function getvalue(address ad) view public returns(uint){\n        return owners[ad];\n    }\n\n    // To add Owners\n    function addOwners(address newOwner) Owner public{\n        require(owners[newOwner] != 1);\n        owners[newOwner] = 1;\n        addedOwners.push(newOwner);\n        noOfOwners++;\n    }\n\n    function noOfOwner() view public returns(uint){\n        return noOfOwners;\n    }\n\n    function getAddedOwners() view Owner public returns(address[] memory){\n        return addedOwners;\n    }\n\n    function removeOwner(address removeOwner) Owner public{\n        // to remove it make the flag 2\n        require(owners[removeOwner] == 1);\n        uint i;\n        uint replace = 0;\n        for(i=0;i<addedOwners.length;i++){\n            if(addedOwners[i] == removeOwner){\n              replace = 1;\n            }\n            if(replace == 1){\n              addedOwners[i-1] = addedOwners[i];\n            }\n        }\n        delete addedOwners[i-1];\n        noOfOwners--;\n        owners[removeOwner] = 2;\n    }\n\n    // To deposit the fund to contract.\n    function deposit() payable public onlyOwners{\n\n    }\n\n\n    function transferAmount(address payable to, uint value) onlyOwners public{\n        require(address(this).balance >= value);\n        Transaction memory transaction;\n        transaction.from = msg.sender;\n        transaction.to = to;\n        transaction.value = value;\n\n        transaction.isValid = true;   // Newly created transaction is true, means pending\n\n        createdTransaction.push(transaction);\n        pendingTransaction.push(transactionIdx);\n        transactionIdx++;\n    }\n\n    //  To sign the transaction where different address will call\n    // the same function with same parameter value\n    function signTransaction(uint id) onlyOwners payable public{\n        Transaction storage transaction = createdTransaction[id];\n        require(transaction.isValid == true);\n        require(address(this).balance >= transaction.value);\n        require(transaction.from != msg.sender);\n        require(transaction.from != address(0));\n        require(transaction.signed[msg.sender] != 1);  // To check the condition where same valid owner cant sign it again.\n\n        transaction.signed[msg.sender] = 1;\n        transaction.signatureCount++;\n\n        if(transaction.signatureCount >= 3){\n            transaction.to.transfer(transaction.value);\n            transaction.isValid = false;  // false means transaction completed\n            removeTransaction(id);\n            }\n    }\n\n    function removeTransaction(uint id) public{\n        uint replace = 0;\n        uint i;\n        for( i=0; i< pendingTransaction.length; i++){\n            if(replace == 1){\n                pendingTransaction[i-1] = pendingTransaction[i];\n            }\n            if(pendingTransaction[i]==id){\n                replace = 1;\n            }\n        }\n        delete pendingTransaction[i-1];\n        pendingTransaction.length = pendingTransaction.length -1;\n    }\n\n    function getPendingTransaction() public returns(uint[] memory){\n        return pendingTransaction;\n    }\n\n\n    function getTransaction(uint id) public onlyOwners returns(address, address, uint, uint, bool) {\n        //  address from;   // who is the sender\n        //     address payable to;   // who is the receiver\n        //     uint value;  // what is the value\n        //     uint signatureCount; // How many people will sign this?\n        //     mapping(address => uint) signed; // Who has signed it and they are allowed to do it or not\n        //     bool isValid;  // Is it pending or completed.\n             return(\n             createdTransaction[id].from,\n             createdTransaction[id].to,\n             createdTransaction[id].value,\n             createdTransaction[id].signatureCount,\n             createdTransaction[id].isValid);\n    }\n\n\n    function walletBalance() view public returns(uint) {\n        return address(this).balance;\n    }\n\n}\n",
  "sourcePath": "/home/tushar/Downloads/projects/Ethereum Practice/16 MultiSigWallet/MultiSigWallet/contracts/MultiSigWallet.sol",
  "compiler": {
    "name": "solc",
    "version": "0.5.8+commit.23d335f2.Emscripten.clang"
  },
  "schemaVersion": "3.0.16",
  "updatedAt": "2020-08-29T15:42:28.503Z",
  "devdoc": {
    "methods": {}
  },
  "userdoc": {
    "methods": {}
  }
}