{
  "contractName": "MultiSigWallet",
  "abi": [
    {
      "inputs": [],
      "payable": false,
      "stateMutability": "nonpayable",
      "type": "constructor"
    },
    {
      "constant": true,
      "inputs": [],
      "name": "creator",
      "outputs": [
        {
          "name": "",
          "type": "address"
        }
      ],
      "payable": false,
      "stateMutability": "view",
      "type": "function"
    },
    {
      "constant": true,
      "inputs": [
        {
          "name": "ad",
          "type": "address"
        }
      ],
      "name": "getvalue",
      "outputs": [
        {
          "name": "",
          "type": "uint256"
        }
      ],
      "payable": false,
      "stateMutability": "view",
      "type": "function"
    },
    {
      "constant": false,
      "inputs": [
        {
          "name": "newOwner",
          "type": "address"
        }
      ],
      "name": "addOwners",
      "outputs": [],
      "payable": false,
      "stateMutability": "nonpayable",
      "type": "function"
    },
    {
      "constant": true,
      "inputs": [],
      "name": "noOfOwner",
      "outputs": [
        {
          "name": "",
          "type": "uint256"
        }
      ],
      "payable": false,
      "stateMutability": "view",
      "type": "function"
    },
    {
      "constant": true,
      "inputs": [],
      "name": "getAddedOwners",
      "outputs": [
        {
          "name": "",
          "type": "address[]"
        }
      ],
      "payable": false,
      "stateMutability": "view",
      "type": "function"
    },
    {
      "constant": false,
      "inputs": [
        {
          "name": "removeOwner",
          "type": "address"
        }
      ],
      "name": "removeOwner",
      "outputs": [],
      "payable": false,
      "stateMutability": "nonpayable",
      "type": "function"
    },
    {
      "constant": false,
      "inputs": [],
      "name": "deposit",
      "outputs": [],
      "payable": true,
      "stateMutability": "payable",
      "type": "function"
    },
    {
      "constant": false,
      "inputs": [
        {
          "name": "to",
          "type": "address"
        },
        {
          "name": "value",
          "type": "uint256"
        }
      ],
      "name": "transferAmount",
      "outputs": [],
      "payable": false,
      "stateMutability": "nonpayable",
      "type": "function"
    },
    {
      "constant": false,
      "inputs": [
        {
          "name": "id",
          "type": "uint256"
        }
      ],
      "name": "signTransaction",
      "outputs": [],
      "payable": true,
      "stateMutability": "payable",
      "type": "function"
    },
    {
      "constant": false,
      "inputs": [
        {
          "name": "id",
          "type": "uint256"
        }
      ],
      "name": "removeTransaction",
      "outputs": [],
      "payable": false,
      "stateMutability": "nonpayable",
      "type": "function"
    },
    {
      "constant": false,
      "inputs": [],
      "name": "getPendingTransaction",
      "outputs": [
        {
          "name": "",
          "type": "uint256[]"
        }
      ],
      "payable": false,
      "stateMutability": "nonpayable",
      "type": "function"
    },
    {
      "constant": false,
      "inputs": [
        {
          "name": "id",
          "type": "uint256"
        }
      ],
      "name": "getTransaction",
      "outputs": [
        {
          "name": "",
          "type": "address"
        },
        {
          "name": "",
          "type": "address"
        },
        {
          "name": "",
          "type": "uint256"
        },
        {
          "name": "",
          "type": "uint256"
        },
        {
          "name": "",
          "type": "bool"
        }
      ],
      "payable": false,
      "stateMutability": "nonpayable",
      "type": "function"
    },
    {
      "constant": true,
      "inputs": [],
      "name": "walletBalance",
      "outputs": [
        {
          "name": "",
          "type": "uint256"
        }
      ],
      "payable": false,
      "stateMutability": "view",
      "type": "function"
    }
  ],
  "bytecode": "0x60806040526001600355600060055534801561001a57600080fd5b50336000806101000a81548173ffffffffffffffffffffffffffffffffffffffff021916908373ffffffffffffffffffffffffffffffffffffffff16021790555060018060003373ffffffffffffffffffffffffffffffffffffffff1673ffffffffffffffffffffffffffffffffffffffff168152602001908152602001600020819055506110d1806100ae6000396000f3fe6080604052600436106100c25760003560e01c80635da6d0351161007f578063cb0aa3f111610059578063cb0aa3f11461042d578063cd0a314b14610458578063d0e30db014610483578063d7081e031461048d576100c2565b80635da6d0351461030b5780635f3b1f3b146103775780639c91d375146103c8576100c2565b806302d05d3f146100c7578063173825d91461011e57806332a85b3e1461016f57806333ea3dc8146101db57806346c3bd1f146102a25780635d9ec210146102dd575b600080fd5b3480156100d357600080fd5b506100dc6104e8565b604051808273ffffffffffffffffffffffffffffffffffffffff1673ffffffffffffffffffffffffffffffffffffffff16815260200191505060405180910390f35b34801561012a57600080fd5b5061016d6004803603602081101561014157600080fd5b81019080803573ffffffffffffffffffffffffffffffffffffffff169060200190929190505050610511565b005b34801561017b57600080fd5b506101846105a4565b6040518080602001828103825283818151815260200191508051906020019060200280838360005b838110156101c75780820151818401526020810190506101ac565b505050509050019250505060405180910390f35b3480156101e757600080fd5b50610214600480360360208110156101fe57600080fd5b81019080803590602001909291905050506105fc565b604051808673ffffffffffffffffffffffffffffffffffffffff1673ffffffffffffffffffffffffffffffffffffffff1681526020018573ffffffffffffffffffffffffffffffffffffffff1673ffffffffffffffffffffffffffffffffffffffff168152602001848152602001838152602001821515151581526020019550505050505060405180910390f35b3480156102ae57600080fd5b506102db600480360360208110156102c557600080fd5b810190808035906020019092919050505061074d565b005b610309600480360360208110156102f357600080fd5b8101908080359060200190929190505050610810565b005b34801561031757600080fd5b50610320610acf565b6040518080602001828103825283818151815260200191508051906020019060200280838360005b83811015610363578082015181840152602081019050610348565b505050509050019250505060405180910390f35b34801561038357600080fd5b506103c66004803603602081101561039a57600080fd5b81019080803573ffffffffffffffffffffffffffffffffffffffff169060200190929190505050610ba8565b005b3480156103d457600080fd5b50610417600480360360208110156103eb57600080fd5b81019080803573ffffffffffffffffffffffffffffffffffffffff169060200190929190505050610cfe565b6040518082815260200191505060405180910390f35b34801561043957600080fd5b50610442610d47565b6040518082815260200191505060405180910390f35b34801561046457600080fd5b5061046d610d51565b6040518082815260200191505060405180910390f35b61048b610d70565b005b34801561049957600080fd5b506104e6600480360360408110156104b057600080fd5b81019080803573ffffffffffffffffffffffffffffffffffffffff16906020019092919080359060200190929190505050610dbd565b005b60008060009054906101000a900473ffffffffffffffffffffffffffffffffffffffff16905090565b60018060003373ffffffffffffffffffffffffffffffffffffffff1673ffffffffffffffffffffffffffffffffffffffff168152602001908152602001600020541461055c57600080fd5b6002600160008373ffffffffffffffffffffffffffffffffffffffff1673ffffffffffffffffffffffffffffffffffffffff1681526020019081526020016000208190555050565b606060068054806020026020016040519081016040528092919081815260200182805480156105f257602002820191906000526020600020905b8154815260200190600101908083116105de575b5050505050905090565b600080600080600060018060003373ffffffffffffffffffffffffffffffffffffffff1673ffffffffffffffffffffffffffffffffffffffff168152602001908152602001600020541461064f57600080fd5b6004868154811061065c57fe5b906000526020600020906006020160000160009054906101000a900473ffffffffffffffffffffffffffffffffffffffff166004878154811061069b57fe5b906000526020600020906006020160010160009054906101000a900473ffffffffffffffffffffffffffffffffffffffff16600488815481106106da57fe5b906000526020600020906006020160020154600489815481106106f957fe5b90600052602060002090600602016003015460048a8154811061071857fe5b906000526020600020906006020160050160009054906101000a900460ff168393509450945094509450945091939590929450565b600080905060008090505b6006805490508110156107d65760018214156107a5576006818154811061077b57fe5b90600052602060002001546006600183038154811061079657fe5b90600052602060002001819055505b82600682815481106107b357fe5b906000526020600020015414156107c957600191505b8080600101915050610758565b600660018203815481106107e657fe5b906000526020600020016000905560016006805490500360068161080a9190610ff7565b50505050565b60018060003373ffffffffffffffffffffffffffffffffffffffff1673ffffffffffffffffffffffffffffffffffffffff168152602001908152602001600020541461085b57600080fd5b60006004828154811061086a57fe5b90600052602060002090600602019050600115158160050160009054906101000a900460ff1615151461089c57600080fd5b80600201543073ffffffffffffffffffffffffffffffffffffffff163110156108c457600080fd5b3373ffffffffffffffffffffffffffffffffffffffff168160000160009054906101000a900473ffffffffffffffffffffffffffffffffffffffff1673ffffffffffffffffffffffffffffffffffffffff16141561092157600080fd5b600073ffffffffffffffffffffffffffffffffffffffff168160000160009054906101000a900473ffffffffffffffffffffffffffffffffffffffff1673ffffffffffffffffffffffffffffffffffffffff16141561097f57600080fd5b60018160040160003373ffffffffffffffffffffffffffffffffffffffff1673ffffffffffffffffffffffffffffffffffffffff1681526020019081526020016000205414156109ce57600080fd5b60018160040160003373ffffffffffffffffffffffffffffffffffffffff1673ffffffffffffffffffffffffffffffffffffffff1681526020019081526020016000208190555080600301600081548092919060010191905055506003816003015410610acb578060010160009054906101000a900473ffffffffffffffffffffffffffffffffffffffff1673ffffffffffffffffffffffffffffffffffffffff166108fc82600201549081150290604051600060405180830381858888f19350505050158015610aa3573d6000803e3d6000fd5b5060008160050160006101000a81548160ff021916908315150217905550610aca8261074d565b5b5050565b606060018060003373ffffffffffffffffffffffffffffffffffffffff1673ffffffffffffffffffffffffffffffffffffffff1681526020019081526020016000205414610b1c57600080fd5b6002805480602002602001604051908101604052809291908181526020018280548015610b9e57602002820191906000526020600020905b8160009054906101000a900473ffffffffffffffffffffffffffffffffffffffff1673ffffffffffffffffffffffffffffffffffffffff1681526020019060010190808311610b54575b5050505050905090565b60018060003373ffffffffffffffffffffffffffffffffffffffff1673ffffffffffffffffffffffffffffffffffffffff1681526020019081526020016000205414610bf357600080fd5b60018060008373ffffffffffffffffffffffffffffffffffffffff1673ffffffffffffffffffffffffffffffffffffffff168152602001908152602001600020541415610c3f57600080fd5b60018060008373ffffffffffffffffffffffffffffffffffffffff1673ffffffffffffffffffffffffffffffffffffffff1681526020019081526020016000208190555060028190806001815401808255809150509060018203906000526020600020016000909192909190916101000a81548173ffffffffffffffffffffffffffffffffffffffff021916908373ffffffffffffffffffffffffffffffffffffffff1602179055505060036000815480929190600101919050555050565b6000600160008373ffffffffffffffffffffffffffffffffffffffff1673ffffffffffffffffffffffffffffffffffffffff168152602001908152602001600020549050919050565b6000600354905090565b60003073ffffffffffffffffffffffffffffffffffffffff1631905090565b60018060003373ffffffffffffffffffffffffffffffffffffffff1673ffffffffffffffffffffffffffffffffffffffff1681526020019081526020016000205414610dbb57600080fd5b565b60018060003373ffffffffffffffffffffffffffffffffffffffff1673ffffffffffffffffffffffffffffffffffffffff1681526020019081526020016000205414610e0857600080fd5b803073ffffffffffffffffffffffffffffffffffffffff16311015610e2c57600080fd5b610e34611023565b33816000019073ffffffffffffffffffffffffffffffffffffffff16908173ffffffffffffffffffffffffffffffffffffffff168152505082816020019073ffffffffffffffffffffffffffffffffffffffff16908173ffffffffffffffffffffffffffffffffffffffff16815250508181604001818152505060018160800190151590811515815250506004819080600181540180825580915050906001820390600052602060002090600602016000909192909190915060008201518160000160006101000a81548173ffffffffffffffffffffffffffffffffffffffff021916908373ffffffffffffffffffffffffffffffffffffffff16021790555060208201518160010160006101000a81548173ffffffffffffffffffffffffffffffffffffffff021916908373ffffffffffffffffffffffffffffffffffffffff160217905550604082015181600201556060820151816003015560808201518160050160006101000a81548160ff02191690831515021790555050505060066005549080600181540180825580915050906001820390600052602060002001600090919290919091505550600560008154809291906001019190505550505050565b81548183558181111561101e5781836000526020600020918201910161101d9190611080565b5b505050565b6040518060a00160405280600073ffffffffffffffffffffffffffffffffffffffff168152602001600073ffffffffffffffffffffffffffffffffffffffff16815260200160008152602001600081526020016000151581525090565b6110a291905b8082111561109e576000816000905550600101611086565b5090565b9056fea165627a7a72305820a21fb952e925a5e59cf2ec444ab0434f928104ce459f6cc9e0d498fa4241675e0029",
  "source": "pragma solidity ^0.5.0;\n\ncontract MultiSigWallet{\n    \n    // This is the address who will deploy the contract \n    // Creater(owner) will add other addresses as valid owners\n    // Owner will be in the list of onlyOwners, defined in constructor\n    address private owner;\n\n    // Any owner who is legal to participate will decided by this mapping\n    // if(address => 1) means valid owner\n    // if(address => 2) means not valid owner anymore\n    mapping(address => uint) owners;\n    address[] addedOwners;\n    uint noOfOwners = 1;\n    \n    struct Transaction { \n            address from;   // who is the sender\n            address payable to;   // who is the receiver\n            uint value;  // what is the value\n            uint signatureCount; // How many people will sign this? \n            mapping(address => uint) signed; // Who has signed it and they are allowed to do it or not\n            bool isValid;  // Is it pending or completed.\n    }\n    \n    // Array of struct to keep all transaction\n    Transaction[] createdTransaction;\n    uint transactionIdx = 0;  // How many transaction have been done? \n    uint[] pendingTransaction; \n    \n    // Condition to give permission to onlyOwners\n    modifier onlyOwners {\n      require(owners[msg.sender] == 1);\n      _;\n    }\n    \n    // Condition to give permission to add Owners \n    modifier Owner {\n      require(owners[msg.sender] == 1);\n      _;\n    }\n    \n    constructor() public{\n        owner = msg.sender;\n        owners[msg.sender] = 1;   // By default creator is valid Owner\n    }\n    \n    function creator() view public returns(address){\n        return owner;\n    }\n    \n    function getvalue(address ad) view public returns(uint){\n        return owners[ad];\n    }\n    \n    // To add Owners\n    function addOwners(address newOwner) Owner public{\n        require(owners[newOwner] != 1);\n        owners[newOwner] = 1;\n        addedOwners.push(newOwner);\n        noOfOwners++; \n    }\n    \n    function noOfOwner() view public returns(uint){\n        return noOfOwners;\n    }\n    \n    function getAddedOwners() view Owner public returns(address[] memory){\n        return addedOwners;\n    }\n    \n    function removeOwner(address removeOwner) Owner public{\n        // to remove it make the flag 2\n        owners[removeOwner] = 2;\n    }\n    \n    // To deposit the fund to contract. \n    function deposit() payable public onlyOwners{\n        \n    }\n    \n\n    function transferAmount(address payable to, uint value) onlyOwners public{\n        require(address(this).balance >= value);\n        Transaction memory transaction;\n        transaction.from = msg.sender;\n        transaction.to = to;\n        transaction.value = value;\n        \n        transaction.isValid = true;   // Newly created transaction is true, means pending\n        \n        createdTransaction.push(transaction);\n        pendingTransaction.push(transactionIdx);\n        transactionIdx++;\n    }\n    \n    //  To sign the transaction where different address will call \n    // the same function with same parameter value\n    function signTransaction(uint id) onlyOwners payable public{\n        Transaction storage transaction = createdTransaction[id];\n        require(transaction.isValid == true);\n        require(address(this).balance >= transaction.value);\n        require(transaction.from != msg.sender);\n        require(transaction.from != address(0));\n        require(transaction.signed[msg.sender] != 1);  // To check the condition where same valid owner cant sign it again. \n        \n        transaction.signed[msg.sender] = 1;\n        transaction.signatureCount++;\n        \n        if(transaction.signatureCount >= 3){\n            transaction.to.transfer(transaction.value);\n            transaction.isValid = false;  // false means transaction completed \n            removeTransaction(id);\n            }\n    }\n    \n    function removeTransaction(uint id) public{\n        uint replace = 0;\n        uint i;\n        for( i=0; i< pendingTransaction.length; i++){\n            if(replace == 1){\n                pendingTransaction[i-1] = pendingTransaction[i];\n            }\n            if(pendingTransaction[i]==id){\n                replace = 1;\n            }\n        }\n        delete pendingTransaction[i-1];\n        pendingTransaction.length = pendingTransaction.length -1;\n    }\n    \n    function getPendingTransaction() public returns(uint[] memory){\n        return pendingTransaction; \n    }\n    \n    \n    function getTransaction(uint id) public onlyOwners returns(address, address, uint, uint, bool) {\n        //  address from;   // who is the sender\n        //     address payable to;   // who is the receiver\n        //     uint value;  // what is the value\n        //     uint signatureCount; // How many people will sign this? \n        //     mapping(address => uint) signed; // Who has signed it and they are allowed to do it or not\n        //     bool isValid;  // Is it pending or completed.\n             return(\n             createdTransaction[id].from,\n             createdTransaction[id].to, \n             createdTransaction[id].value,\n             createdTransaction[id].signatureCount,\n             createdTransaction[id].isValid);\n    }\n    \n    \n    function walletBalance() view public returns(uint) {\n        return address(this).balance;\n    }\n    \n}",
  "sourcePath": "/home/tushar/Downloads/projects/Ethereum Practice/16 MultiSigWallet/MultiSigWallet/contracts/MultiSigWallet.sol",
  "compiler": {
    "name": "solc",
    "version": "0.5.8+commit.23d335f2.Emscripten.clang"
  },
  "schemaVersion": "3.0.16",
  "updatedAt": "2020-08-27T20:17:01.044Z",
  "devdoc": {
    "methods": {}
  },
  "userdoc": {
    "methods": {}
  }
}