{
  "contractName": "MultiSigWallet",
  "abi": [
    {
      "inputs": [],
      "payable": false,
      "stateMutability": "nonpayable",
      "type": "constructor"
    },
    {
      "constant": true,
      "inputs": [],
      "name": "creator",
      "outputs": [
        {
          "name": "",
          "type": "address"
        }
      ],
      "payable": false,
      "stateMutability": "view",
      "type": "function"
    },
    {
      "constant": true,
      "inputs": [
        {
          "name": "ad",
          "type": "address"
        }
      ],
      "name": "getvalue",
      "outputs": [
        {
          "name": "",
          "type": "uint256"
        }
      ],
      "payable": false,
      "stateMutability": "view",
      "type": "function"
    },
    {
      "constant": false,
      "inputs": [
        {
          "name": "newOwner",
          "type": "address"
        }
      ],
      "name": "addOwners",
      "outputs": [],
      "payable": false,
      "stateMutability": "nonpayable",
      "type": "function"
    },
    {
      "constant": true,
      "inputs": [],
      "name": "noOfOwner",
      "outputs": [
        {
          "name": "",
          "type": "uint256"
        }
      ],
      "payable": false,
      "stateMutability": "view",
      "type": "function"
    },
    {
      "constant": false,
      "inputs": [
        {
          "name": "removeOwner",
          "type": "address"
        }
      ],
      "name": "removeOwner",
      "outputs": [],
      "payable": false,
      "stateMutability": "nonpayable",
      "type": "function"
    },
    {
      "constant": false,
      "inputs": [],
      "name": "deposit",
      "outputs": [],
      "payable": true,
      "stateMutability": "payable",
      "type": "function"
    },
    {
      "constant": false,
      "inputs": [
        {
          "name": "to",
          "type": "address"
        },
        {
          "name": "value",
          "type": "uint256"
        }
      ],
      "name": "transferAmount",
      "outputs": [],
      "payable": false,
      "stateMutability": "nonpayable",
      "type": "function"
    },
    {
      "constant": false,
      "inputs": [
        {
          "name": "id",
          "type": "uint256"
        }
      ],
      "name": "signTransaction",
      "outputs": [],
      "payable": true,
      "stateMutability": "payable",
      "type": "function"
    },
    {
      "constant": true,
      "inputs": [],
      "name": "walletBalance",
      "outputs": [
        {
          "name": "",
          "type": "uint256"
        }
      ],
      "payable": false,
      "stateMutability": "view",
      "type": "function"
    }
  ],
  "bytecode": "0x60806040526001600255600060045534801561001a57600080fd5b50336000806101000a81548173ffffffffffffffffffffffffffffffffffffffff021916908373ffffffffffffffffffffffffffffffffffffffff16021790555060018060003373ffffffffffffffffffffffffffffffffffffffff1673ffffffffffffffffffffffffffffffffffffffff168152602001908152602001600020819055506109f8806100ae6000396000f3fe6080604052600436106100865760003560e01c80639c91d375116100595780639c91d375146101b2578063cb0aa3f114610217578063cd0a314b14610242578063d0e30db01461026d578063d7081e031461027757610086565b806302d05d3f1461008b578063173825d9146100e25780635d9ec210146101335780635f3b1f3b14610161575b600080fd5b34801561009757600080fd5b506100a06102d2565b604051808273ffffffffffffffffffffffffffffffffffffffff1673ffffffffffffffffffffffffffffffffffffffff16815260200191505060405180910390f35b3480156100ee57600080fd5b506101316004803603602081101561010557600080fd5b81019080803573ffffffffffffffffffffffffffffffffffffffff1690602001909291905050506102fb565b005b61015f6004803603602081101561014957600080fd5b81019080803590602001909291905050506102fe565b005b34801561016d57600080fd5b506101b06004803603602081101561018457600080fd5b81019080803573ffffffffffffffffffffffffffffffffffffffff1690602001909291905050506105b4565b005b3480156101be57600080fd5b50610201600480360360208110156101d557600080fd5b81019080803573ffffffffffffffffffffffffffffffffffffffff1690602001909291905050506106a4565b6040518082815260200191505060405180910390f35b34801561022357600080fd5b5061022c6106ed565b6040518082815260200191505060405180910390f35b34801561024e57600080fd5b506102576106f7565b6040518082815260200191505060405180910390f35b610275610716565b005b34801561028357600080fd5b506102d06004803603604081101561029a57600080fd5b81019080803573ffffffffffffffffffffffffffffffffffffffff16906020019092919080359060200190929190505050610763565b005b60008060009054906101000a900473ffffffffffffffffffffffffffffffffffffffff16905090565b50565b60018060003373ffffffffffffffffffffffffffffffffffffffff1673ffffffffffffffffffffffffffffffffffffffff168152602001908152602001600020541461034957600080fd5b60006003828154811061035857fe5b90600052602060002090600602019050600115158160050160009054906101000a900460ff1615151461038a57600080fd5b80600201543073ffffffffffffffffffffffffffffffffffffffff163110156103b257600080fd5b3373ffffffffffffffffffffffffffffffffffffffff168160000160009054906101000a900473ffffffffffffffffffffffffffffffffffffffff1673ffffffffffffffffffffffffffffffffffffffff16141561040f57600080fd5b600073ffffffffffffffffffffffffffffffffffffffff168160000160009054906101000a900473ffffffffffffffffffffffffffffffffffffffff1673ffffffffffffffffffffffffffffffffffffffff16141561046d57600080fd5b60018160040160003373ffffffffffffffffffffffffffffffffffffffff1673ffffffffffffffffffffffffffffffffffffffff1681526020019081526020016000205414156104bc57600080fd5b60018160040160003373ffffffffffffffffffffffffffffffffffffffff1673ffffffffffffffffffffffffffffffffffffffff16815260200190815260200160002081905550806003016000815480929190600101919050555060038160030154106105b0578060010160009054906101000a900473ffffffffffffffffffffffffffffffffffffffff1673ffffffffffffffffffffffffffffffffffffffff166108fc82600201549081150290604051600060405180830381858888f19350505050158015610591573d6000803e3d6000fd5b5060008160050160006101000a81548160ff0219169083151502179055505b5050565b60018060003373ffffffffffffffffffffffffffffffffffffffff1673ffffffffffffffffffffffffffffffffffffffff16815260200190815260200160002054146105ff57600080fd5b60018060008373ffffffffffffffffffffffffffffffffffffffff1673ffffffffffffffffffffffffffffffffffffffff16815260200190815260200160002054141561064b57600080fd5b60018060008373ffffffffffffffffffffffffffffffffffffffff1673ffffffffffffffffffffffffffffffffffffffff1681526020019081526020016000208190555060026000815480929190600101919050555050565b6000600160008373ffffffffffffffffffffffffffffffffffffffff1673ffffffffffffffffffffffffffffffffffffffff168152602001908152602001600020549050919050565b6000600254905090565b60003073ffffffffffffffffffffffffffffffffffffffff1631905090565b60018060003373ffffffffffffffffffffffffffffffffffffffff1673ffffffffffffffffffffffffffffffffffffffff168152602001908152602001600020541461076157600080fd5b565b60018060003373ffffffffffffffffffffffffffffffffffffffff1673ffffffffffffffffffffffffffffffffffffffff16815260200190815260200160002054146107ae57600080fd5b803073ffffffffffffffffffffffffffffffffffffffff163110156107d257600080fd5b6107da61096f565b33816000019073ffffffffffffffffffffffffffffffffffffffff16908173ffffffffffffffffffffffffffffffffffffffff168152505082816020019073ffffffffffffffffffffffffffffffffffffffff16908173ffffffffffffffffffffffffffffffffffffffff16815250508181604001818152505060018160800190151590811515815250506003819080600181540180825580915050906001820390600052602060002090600602016000909192909190915060008201518160000160006101000a81548173ffffffffffffffffffffffffffffffffffffffff021916908373ffffffffffffffffffffffffffffffffffffffff16021790555060208201518160010160006101000a81548173ffffffffffffffffffffffffffffffffffffffff021916908373ffffffffffffffffffffffffffffffffffffffff160217905550604082015181600201556060820151816003015560808201518160050160006101000a81548160ff021916908315150217905550505050600460008154809291906001019190505550505050565b6040518060a00160405280600073ffffffffffffffffffffffffffffffffffffffff168152602001600073ffffffffffffffffffffffffffffffffffffffff1681526020016000815260200160008152602001600015158152509056fea165627a7a72305820343cc5aadfbe489908decd172192de7ce01d1868d54a0d3c99a33b73ad364feb0029",
  "source": "pragma solidity ^0.5.0;\n\ncontract MultiSigWallet{\n    \n    // This is the address who will deploy the contract \n    // Creater(owner) will add other addresses as valid owners\n    // Owner will be in the list of onlyOwners, defined in constructor\n    address private owner;\n\n    // Any owner who is legal to participate will decided by this mapping\n    // if(address => 1) means valid owner\n    // if(address => 2) means not valid owner anymore\n    mapping(address => uint) owners;\n    uint noOfOwners = 1;\n    \n    struct Transaction { \n            address from;   // who is the sender\n            address payable to;   // who is the receiver\n            uint value;  // what is the value\n            uint signatureCount; // How many people will sign this? \n            mapping(address => uint) signed; // Who has signed it and they are allowed to do it or not\n            bool isValid;  // Is it pending or completed.\n    }\n    \n    // Array of struct to keep all transaction\n    Transaction[] pendingTransaction;\n    uint transactionIdx = 0;  // How many transaction have been done? \n    \n    // Condition to give permission to onlyOwners\n    modifier onlyOwners {\n      require(owners[msg.sender] == 1);\n      _;\n    }\n    \n    // Condition to give permission to add Owners \n    modifier Owner {\n      require(owners[msg.sender] == 1);\n      _;\n    }\n    \n    constructor() public{\n        owner = msg.sender;\n        owners[msg.sender] = 1;   // By default creator is valid Owner\n    }\n    \n    function creator() view public returns(address){\n        return owner;\n    }\n    \n    function getvalue(address ad) view public returns(uint){\n        return owners[ad];\n    }\n    \n    // To add Owners\n    function addOwners(address newOwner) Owner public{\n        require(owners[newOwner] != 1);\n        owners[newOwner] = 1;\n        noOfOwners++; \n    }\n    \n    function noOfOwner() view public returns(uint){\n        return noOfOwners;\n    }\n    \n    function removeOwner(address removeOwner) public{\n        // to remove it make the flag 2\n    }\n    \n    // To deposit the fund to contract. \n    function deposit() payable public onlyOwners{\n        \n    }\n    \n\n    function transferAmount(address payable to, uint value) onlyOwners public{\n        require(address(this).balance >= value);\n        Transaction memory transaction;\n        transaction.from = msg.sender;\n        transaction.to = to;\n        transaction.value = value;\n        \n        transaction.isValid = true;   // Newly created transaction is true, means pending\n        \n        pendingTransaction.push(transaction);\n        transactionIdx++;\n    }\n    \n    //  To sign the transaction where different address will call \n    // the same function with same parameter value\n    function signTransaction(uint id) onlyOwners payable public{\n        Transaction storage transaction = pendingTransaction[id];\n        require(transaction.isValid == true);\n        require(address(this).balance >= transaction.value);\n        require(transaction.from != msg.sender);\n        require(transaction.from != address(0));\n        require(transaction.signed[msg.sender] != 1);  // To check the condition where same valid owner cant sign it again. \n        \n        transaction.signed[msg.sender] = 1;\n        transaction.signatureCount++;\n        \n        if(transaction.signatureCount >= 3){\n            transaction.to.transfer(transaction.value);\n            transaction.isValid = false;  // false means transaction completed \n            }\n    }\n    \n    \n    function walletBalance() view public returns(uint) {\n        return address(this).balance;\n    }\n    \n}",
  "sourcePath": "/home/tushar/Downloads/projects/Ethereum Practice/16 MultiSigWallet/MultiSigWallet/contracts/MultiSigWallet.sol",
  "compiler": {
    "name": "solc",
    "version": "0.5.8+commit.23d335f2.Emscripten.clang"
  },
  "schemaVersion": "3.0.16",
  "updatedAt": "2020-08-24T14:53:41.350Z",
  "devdoc": {
    "methods": {}
  },
  "userdoc": {
    "methods": {}
  }
}